{
  "contractName": "Niko",
  "abi": [
    {
      "inputs": [
        {
          "internalType": "uint256",
          "name": "_initialSupply",
          "type": "uint256"
        }
      ],
      "stateMutability": "nonpayable",
      "type": "constructor"
    },
    {
      "anonymous": false,
      "inputs": [
        {
          "indexed": true,
          "internalType": "address",
          "name": "owner",
          "type": "address"
        },
        {
          "indexed": true,
          "internalType": "address",
          "name": "spender",
          "type": "address"
        },
        {
          "indexed": false,
          "internalType": "uint256",
          "name": "value",
          "type": "uint256"
        }
      ],
      "name": "Approval",
      "type": "event"
    },
    {
      "anonymous": false,
      "inputs": [
        {
          "indexed": true,
          "internalType": "address",
          "name": "previousOwner",
          "type": "address"
        },
        {
          "indexed": true,
          "internalType": "address",
          "name": "newOwner",
          "type": "address"
        }
      ],
      "name": "OwnershipTransferred",
      "type": "event"
    },
    {
      "anonymous": false,
      "inputs": [
        {
          "indexed": true,
          "internalType": "address",
          "name": "from",
          "type": "address"
        },
        {
          "indexed": true,
          "internalType": "address",
          "name": "to",
          "type": "address"
        },
        {
          "indexed": false,
          "internalType": "uint256",
          "name": "value",
          "type": "uint256"
        }
      ],
      "name": "Transfer",
      "type": "event"
    },
    {
      "inputs": [
        {
          "internalType": "address",
          "name": "owner",
          "type": "address"
        },
        {
          "internalType": "address",
          "name": "spender",
          "type": "address"
        }
      ],
      "name": "allowance",
      "outputs": [
        {
          "internalType": "uint256",
          "name": "",
          "type": "uint256"
        }
      ],
      "stateMutability": "view",
      "type": "function",
      "constant": true
    },
    {
      "inputs": [
        {
          "internalType": "address",
          "name": "spender",
          "type": "address"
        },
        {
          "internalType": "uint256",
          "name": "amount",
          "type": "uint256"
        }
      ],
      "name": "approve",
      "outputs": [
        {
          "internalType": "bool",
          "name": "",
          "type": "bool"
        }
      ],
      "stateMutability": "nonpayable",
      "type": "function"
    },
    {
      "inputs": [
        {
          "internalType": "address",
          "name": "account",
          "type": "address"
        }
      ],
      "name": "balanceOf",
      "outputs": [
        {
          "internalType": "uint256",
          "name": "",
          "type": "uint256"
        }
      ],
      "stateMutability": "view",
      "type": "function",
      "constant": true
    },
    {
      "inputs": [],
      "name": "decimals",
      "outputs": [
        {
          "internalType": "uint8",
          "name": "",
          "type": "uint8"
        }
      ],
      "stateMutability": "view",
      "type": "function",
      "constant": true
    },
    {
      "inputs": [
        {
          "internalType": "address",
          "name": "spender",
          "type": "address"
        },
        {
          "internalType": "uint256",
          "name": "subtractedValue",
          "type": "uint256"
        }
      ],
      "name": "decreaseAllowance",
      "outputs": [
        {
          "internalType": "bool",
          "name": "",
          "type": "bool"
        }
      ],
      "stateMutability": "nonpayable",
      "type": "function"
    },
    {
      "inputs": [
        {
          "internalType": "address",
          "name": "spender",
          "type": "address"
        },
        {
          "internalType": "uint256",
          "name": "addedValue",
          "type": "uint256"
        }
      ],
      "name": "increaseAllowance",
      "outputs": [
        {
          "internalType": "bool",
          "name": "",
          "type": "bool"
        }
      ],
      "stateMutability": "nonpayable",
      "type": "function"
    },
    {
      "inputs": [],
      "name": "name",
      "outputs": [
        {
          "internalType": "string",
          "name": "",
          "type": "string"
        }
      ],
      "stateMutability": "view",
      "type": "function",
      "constant": true
    },
    {
      "inputs": [],
      "name": "owner",
      "outputs": [
        {
          "internalType": "address",
          "name": "",
          "type": "address"
        }
      ],
      "stateMutability": "view",
      "type": "function",
      "constant": true
    },
    {
      "inputs": [],
      "name": "renounceOwnership",
      "outputs": [],
      "stateMutability": "nonpayable",
      "type": "function"
    },
    {
      "inputs": [],
      "name": "symbol",
      "outputs": [
        {
          "internalType": "string",
          "name": "",
          "type": "string"
        }
      ],
      "stateMutability": "view",
      "type": "function",
      "constant": true
    },
    {
      "inputs": [],
      "name": "totalSupply",
      "outputs": [
        {
          "internalType": "uint256",
          "name": "",
          "type": "uint256"
        }
      ],
      "stateMutability": "view",
      "type": "function",
      "constant": true
    },
    {
      "inputs": [
        {
          "internalType": "address",
          "name": "recipient",
          "type": "address"
        },
        {
          "internalType": "uint256",
          "name": "amount",
          "type": "uint256"
        }
      ],
      "name": "transfer",
      "outputs": [
        {
          "internalType": "bool",
          "name": "",
          "type": "bool"
        }
      ],
      "stateMutability": "nonpayable",
      "type": "function"
    },
    {
      "inputs": [
        {
          "internalType": "address",
          "name": "sender",
          "type": "address"
        },
        {
          "internalType": "address",
          "name": "recipient",
          "type": "address"
        },
        {
          "internalType": "uint256",
          "name": "amount",
          "type": "uint256"
        }
      ],
      "name": "transferFrom",
      "outputs": [
        {
          "internalType": "bool",
          "name": "",
          "type": "bool"
        }
      ],
      "stateMutability": "nonpayable",
      "type": "function"
    },
    {
      "inputs": [
        {
          "internalType": "address",
          "name": "newOwner",
          "type": "address"
        }
      ],
      "name": "transferOwnership",
      "outputs": [],
      "stateMutability": "nonpayable",
      "type": "function"
    },
    {
      "inputs": [
        {
          "internalType": "address",
          "name": "_to",
          "type": "address"
        },
        {
          "internalType": "uint256",
          "name": "_amount",
          "type": "uint256"
        }
      ],
      "name": "mintToken",
      "outputs": [],
      "stateMutability": "nonpayable",
      "type": "function"
    },
    {
      "inputs": [
        {
          "internalType": "address",
          "name": "_newAddress",
          "type": "address"
        }
      ],
      "name": "setStakingRewardsAddress",
      "outputs": [],
      "stateMutability": "nonpayable",
      "type": "function"
    }
  ],
  "bytecode": "0x608060405260056007553480156200001657600080fd5b50604051620027b6380380620027b683398181016040528101906200003c9190620003df565b6040518060400160405280600481526020017f4e696b6f000000000000000000000000000000000000000000000000000000008152506040518060400160405280600381526020017f4e4b4f00000000000000000000000000000000000000000000000000000000008152508160039080519060200190620000c092919062000318565b508060049080519060200190620000d992919062000318565b5050506000620000ee620001a660201b60201c565b905080600560006101000a81548173ffffffffffffffffffffffffffffffffffffffff021916908373ffffffffffffffffffffffffffffffffffffffff1602179055508073ffffffffffffffffffffffffffffffffffffffff16600073ffffffffffffffffffffffffffffffffffffffff167f8be0079c531659141344cd1fd0a4f28419497f9722a3daafe3b4186f6b6457e060405160405180910390a3506200019f3382620001ae60201b60201c565b50620005d1565b600033905090565b600073ffffffffffffffffffffffffffffffffffffffff168273ffffffffffffffffffffffffffffffffffffffff16141562000221576040517f08c379a0000000000000000000000000000000000000000000000000000000008152600401620002189062000443565b60405180910390fd5b62000235600083836200031360201b60201c565b806002600082825462000249919062000493565b92505081905550806000808473ffffffffffffffffffffffffffffffffffffffff1673ffffffffffffffffffffffffffffffffffffffff1681526020019081526020016000206000828254620002a0919062000493565b925050819055508173ffffffffffffffffffffffffffffffffffffffff16600073ffffffffffffffffffffffffffffffffffffffff167fddf252ad1be2c89b69c2b068fc378daa952ba7f163c4a11628f55a4df523b3ef8360405162000307919062000465565b60405180910390a35050565b505050565b8280546200032690620004fa565b90600052602060002090601f0160209004810192826200034a576000855562000396565b82601f106200036557805160ff191683800117855562000396565b8280016001018555821562000396579182015b828111156200039557825182559160200191906001019062000378565b5b509050620003a59190620003a9565b5090565b5b80821115620003c4576000816000905550600101620003aa565b5090565b600081519050620003d981620005b7565b92915050565b600060208284031215620003f257600080fd5b60006200040284828501620003c8565b91505092915050565b60006200041a601f8362000482565b915062000427826200058e565b602082019050919050565b6200043d81620004f0565b82525050565b600060208201905081810360008301526200045e816200040b565b9050919050565b60006020820190506200047c600083018462000432565b92915050565b600082825260208201905092915050565b6000620004a082620004f0565b9150620004ad83620004f0565b9250827fffffffffffffffffffffffffffffffffffffffffffffffffffffffffffffffff03821115620004e557620004e462000530565b5b828201905092915050565b6000819050919050565b600060028204905060018216806200051357607f821691505b602082108114156200052a57620005296200055f565b5b50919050565b7f4e487b7100000000000000000000000000000000000000000000000000000000600052601160045260246000fd5b7f4e487b7100000000000000000000000000000000000000000000000000000000600052602260045260246000fd5b7f45524332303a206d696e7420746f20746865207a65726f206164647265737300600082015250565b620005c281620004f0565b8114620005ce57600080fd5b50565b6121d580620005e16000396000f3fe608060405234801561001057600080fd5b50600436106101005760003560e01c806379c6506811610097578063a9059cbb11610066578063a9059cbb146102b1578063dd62ed3e146102e1578063f2fde38b14610311578063f91564af1461032d57610100565b806379c65068146102295780638da5cb5b1461024557806395d89b4114610263578063a457c2d71461028157610100565b8063313ce567116100d3578063313ce567146101a157806339509351146101bf57806370a08231146101ef578063715018a61461021f57610100565b806306fdde0314610105578063095ea7b31461012357806318160ddd1461015357806323b872dd14610171575b600080fd5b61010d610349565b60405161011a91906119a8565b60405180910390f35b61013d6004803603810190610138919061171d565b6103db565b60405161014a919061198d565b60405180910390f35b61015b6103f9565b6040516101689190611b4a565b60405180910390f35b61018b600480360381019061018691906116ce565b610403565b604051610198919061198d565b60405180910390f35b6101a9610504565b6040516101b69190611b65565b60405180910390f35b6101d960048036038101906101d4919061171d565b61050d565b6040516101e6919061198d565b60405180910390f35b61020960048036038101906102049190611669565b6105b9565b6040516102169190611b4a565b60405180910390f35b610227610601565b005b610243600480360381019061023e919061171d565b61073e565b005b61024d6107c8565b60405161025a9190611972565b60405180910390f35b61026b6107f2565b60405161027891906119a8565b60405180910390f35b61029b6004803603810190610296919061171d565b610884565b6040516102a8919061198d565b60405180910390f35b6102cb60048036038101906102c6919061171d565b610978565b6040516102d8919061198d565b60405180910390f35b6102fb60048036038101906102f69190611692565b610996565b6040516103089190611b4a565b60405180910390f35b61032b60048036038101906103269190611669565b610a1d565b005b61034760048036038101906103429190611669565b610bc9565b005b60606003805461035890611d39565b80601f016020809104026020016040519081016040528092919081815260200182805461038490611d39565b80156103d15780601f106103a6576101008083540402835291602001916103d1565b820191906000526020600020905b8154815290600101906020018083116103b457829003601f168201915b5050505050905090565b60006103ef6103e8610c89565b8484610c91565b6001905092915050565b6000600254905090565b6000610410848484610e5c565b6000600160008673ffffffffffffffffffffffffffffffffffffffff1673ffffffffffffffffffffffffffffffffffffffff168152602001908152602001600020600061045b610c89565b73ffffffffffffffffffffffffffffffffffffffff1673ffffffffffffffffffffffffffffffffffffffff168152602001908152602001600020549050828110156104db576040517f08c379a00000000000000000000000000000000000000000000000000000000081526004016104d290611a6a565b60405180910390fd5b6104f8856104e7610c89565b85846104f39190611c7d565b610c91565b60019150509392505050565b60006012905090565b60006105af61051a610c89565b848460016000610528610c89565b73ffffffffffffffffffffffffffffffffffffffff1673ffffffffffffffffffffffffffffffffffffffff16815260200190815260200160002060008873ffffffffffffffffffffffffffffffffffffffff1673ffffffffffffffffffffffffffffffffffffffff168152602001908152602001600020546105aa9190611b9c565b610c91565b6001905092915050565b60008060008373ffffffffffffffffffffffffffffffffffffffff1673ffffffffffffffffffffffffffffffffffffffff168152602001908152602001600020549050919050565b610609610c89565b73ffffffffffffffffffffffffffffffffffffffff166106276107c8565b73ffffffffffffffffffffffffffffffffffffffff161461067d576040517f08c379a000000000000000000000000000000000000000000000000000000000815260040161067490611a8a565b60405180910390fd5b600073ffffffffffffffffffffffffffffffffffffffff16600560009054906101000a900473ffffffffffffffffffffffffffffffffffffffff1673ffffffffffffffffffffffffffffffffffffffff167f8be0079c531659141344cd1fd0a4f28419497f9722a3daafe3b4186f6b6457e060405160405180910390a36000600560006101000a81548173ffffffffffffffffffffffffffffffffffffffff021916908373ffffffffffffffffffffffffffffffffffffffff160217905550565b610746610c89565b73ffffffffffffffffffffffffffffffffffffffff166107646107c8565b73ffffffffffffffffffffffffffffffffffffffff16146107ba576040517f08c379a00000000000000000000000000000000000000000000000000000000081526004016107b190611a8a565b60405180910390fd5b6107c48282610ebc565b5050565b6000600560009054906101000a900473ffffffffffffffffffffffffffffffffffffffff16905090565b60606004805461080190611d39565b80601f016020809104026020016040519081016040528092919081815260200182805461082d90611d39565b801561087a5780601f1061084f5761010080835404028352916020019161087a565b820191906000526020600020905b81548152906001019060200180831161085d57829003601f168201915b5050505050905090565b60008060016000610893610c89565b73ffffffffffffffffffffffffffffffffffffffff1673ffffffffffffffffffffffffffffffffffffffff16815260200190815260200160002060008573ffffffffffffffffffffffffffffffffffffffff1673ffffffffffffffffffffffffffffffffffffffff16815260200190815260200160002054905082811015610950576040517f08c379a000000000000000000000000000000000000000000000000000000000815260040161094790611b0a565b60405180910390fd5b61096d61095b610c89565b8585846109689190611c7d565b610c91565b600191505092915050565b600061098c610985610c89565b8484610e5c565b6001905092915050565b6000600160008473ffffffffffffffffffffffffffffffffffffffff1673ffffffffffffffffffffffffffffffffffffffff16815260200190815260200160002060008373ffffffffffffffffffffffffffffffffffffffff1673ffffffffffffffffffffffffffffffffffffffff16815260200190815260200160002054905092915050565b610a25610c89565b73ffffffffffffffffffffffffffffffffffffffff16610a436107c8565b73ffffffffffffffffffffffffffffffffffffffff1614610a99576040517f08c379a0000000000000000000000000000000000000000000000000000000008152600401610a9090611a8a565b60405180910390fd5b600073ffffffffffffffffffffffffffffffffffffffff168173ffffffffffffffffffffffffffffffffffffffff161415610b09576040517f08c379a0000000000000000000000000000000000000000000000000000000008152600401610b0090611a0a565b60405180910390fd5b8073ffffffffffffffffffffffffffffffffffffffff16600560009054906101000a900473ffffffffffffffffffffffffffffffffffffffff1673ffffffffffffffffffffffffffffffffffffffff167f8be0079c531659141344cd1fd0a4f28419497f9722a3daafe3b4186f6b6457e060405160405180910390a380600560006101000a81548173ffffffffffffffffffffffffffffffffffffffff021916908373ffffffffffffffffffffffffffffffffffffffff16021790555050565b610bd1610c89565b73ffffffffffffffffffffffffffffffffffffffff16610bef6107c8565b73ffffffffffffffffffffffffffffffffffffffff1614610c45576040517f08c379a0000000000000000000000000000000000000000000000000000000008152600401610c3c90611a8a565b60405180910390fd5b80600660006101000a81548173ffffffffffffffffffffffffffffffffffffffff021916908373ffffffffffffffffffffffffffffffffffffffff16021790555050565b600033905090565b600073ffffffffffffffffffffffffffffffffffffffff168373ffffffffffffffffffffffffffffffffffffffff161415610d01576040517f08c379a0000000000000000000000000000000000000000000000000000000008152600401610cf890611aea565b60405180910390fd5b600073ffffffffffffffffffffffffffffffffffffffff168273ffffffffffffffffffffffffffffffffffffffff161415610d71576040517f08c379a0000000000000000000000000000000000000000000000000000000008152600401610d6890611a2a565b60405180910390fd5b80600160008573ffffffffffffffffffffffffffffffffffffffff1673ffffffffffffffffffffffffffffffffffffffff16815260200190815260200160002060008473ffffffffffffffffffffffffffffffffffffffff1673ffffffffffffffffffffffffffffffffffffffff168152602001908152602001600020819055508173ffffffffffffffffffffffffffffffffffffffff168373ffffffffffffffffffffffffffffffffffffffff167f8c5be1e5ebec7d5bd14f71427d1e84f3dd0314c0f7b2291e5b200ac8c7c3b92583604051610e4f9190611b4a565b60405180910390a3505050565b80610e66846105b9565b1015610e7157600080fd5b6000610e7d8284611010565b90506000610e94828461115890919063ffffffff16565b90506000821115610eaa57610ea9858361116e565b5b610eb58585836111bb565b5050505050565b600073ffffffffffffffffffffffffffffffffffffffff168273ffffffffffffffffffffffffffffffffffffffff161415610f2c576040517f08c379a0000000000000000000000000000000000000000000000000000000008152600401610f2390611b2a565b60405180910390fd5b610f386000838361143a565b8060026000828254610f4a9190611b9c565b92505081905550806000808473ffffffffffffffffffffffffffffffffffffffff1673ffffffffffffffffffffffffffffffffffffffff1681526020019081526020016000206000828254610f9f9190611b9c565b925050819055508173ffffffffffffffffffffffffffffffffffffffff16600073ffffffffffffffffffffffffffffffffffffffff167fddf252ad1be2c89b69c2b068fc378daa952ba7f163c4a11628f55a4df523b3ef836040516110049190611b4a565b60405180910390a35050565b600080600090506000690a968163f0a57b40000090508061102f6103f9565b1180156110695750600073ffffffffffffffffffffffffffffffffffffffff163373ffffffffffffffffffffffffffffffffffffffff1614155b80156110c35750600660009054906101000a900473ffffffffffffffffffffffffffffffffffffffff1673ffffffffffffffffffffffffffffffffffffffff163373ffffffffffffffffffffffffffffffffffffffff1614155b801561111d5750600660009054906101000a900473ffffffffffffffffffffffffffffffffffffffff1673ffffffffffffffffffffffffffffffffffffffff168473ffffffffffffffffffffffffffffffffffffffff1614155b1561114d5761114a606461113c6007548861143f90919063ffffffff16565b61145590919063ffffffff16565b91505b819250505092915050565b600081836111669190611c7d565b905092915050565b611178828261146b565b6111b7600660009054906101000a900473ffffffffffffffffffffffffffffffffffffffff166111b260028461145590919063ffffffff16565b610ebc565b5050565b600073ffffffffffffffffffffffffffffffffffffffff168373ffffffffffffffffffffffffffffffffffffffff16141561122b576040517f08c379a000000000000000000000000000000000000000000000000000000000815260040161122290611aca565b60405180910390fd5b600073ffffffffffffffffffffffffffffffffffffffff168273ffffffffffffffffffffffffffffffffffffffff16141561129b576040517f08c379a0000000000000000000000000000000000000000000000000000000008152600401611292906119ca565b60405180910390fd5b6112a683838361143a565b60008060008573ffffffffffffffffffffffffffffffffffffffff1673ffffffffffffffffffffffffffffffffffffffff1681526020019081526020016000205490508181101561132c576040517f08c379a000000000000000000000000000000000000000000000000000000000815260040161132390611a4a565b60405180910390fd5b81816113389190611c7d565b6000808673ffffffffffffffffffffffffffffffffffffffff1673ffffffffffffffffffffffffffffffffffffffff16815260200190815260200160002081905550816000808573ffffffffffffffffffffffffffffffffffffffff1673ffffffffffffffffffffffffffffffffffffffff16815260200190815260200160002060008282546113c89190611b9c565b925050819055508273ffffffffffffffffffffffffffffffffffffffff168473ffffffffffffffffffffffffffffffffffffffff167fddf252ad1be2c89b69c2b068fc378daa952ba7f163c4a11628f55a4df523b3ef8460405161142c9190611b4a565b60405180910390a350505050565b505050565b6000818361144d9190611c23565b905092915050565b600081836114639190611bf2565b905092915050565b600073ffffffffffffffffffffffffffffffffffffffff168273ffffffffffffffffffffffffffffffffffffffff1614156114db576040517f08c379a00000000000000000000000000000000000000000000000000000000081526004016114d290611aaa565b60405180910390fd5b6114e78260008361143a565b60008060008473ffffffffffffffffffffffffffffffffffffffff1673ffffffffffffffffffffffffffffffffffffffff1681526020019081526020016000205490508181101561156d576040517f08c379a0000000000000000000000000000000000000000000000000000000008152600401611564906119ea565b60405180910390fd5b81816115799190611c7d565b6000808573ffffffffffffffffffffffffffffffffffffffff1673ffffffffffffffffffffffffffffffffffffffff1681526020019081526020016000208190555081600260008282546115cd9190611c7d565b92505081905550600073ffffffffffffffffffffffffffffffffffffffff168373ffffffffffffffffffffffffffffffffffffffff167fddf252ad1be2c89b69c2b068fc378daa952ba7f163c4a11628f55a4df523b3ef846040516116329190611b4a565b60405180910390a3505050565b60008135905061164e81612171565b92915050565b60008135905061166381612188565b92915050565b60006020828403121561167b57600080fd5b60006116898482850161163f565b91505092915050565b600080604083850312156116a557600080fd5b60006116b38582860161163f565b92505060206116c48582860161163f565b9150509250929050565b6000806000606084860312156116e357600080fd5b60006116f18682870161163f565b93505060206117028682870161163f565b925050604061171386828701611654565b9150509250925092565b6000806040838503121561173057600080fd5b600061173e8582860161163f565b925050602061174f85828601611654565b9150509250929050565b61176281611cb1565b82525050565b61177181611cc3565b82525050565b600061178282611b80565b61178c8185611b8b565b935061179c818560208601611d06565b6117a581611df8565b840191505092915050565b60006117bd602383611b8b565b91506117c882611e09565b604082019050919050565b60006117e0602283611b8b565b91506117eb82611e58565b604082019050919050565b6000611803602683611b8b565b915061180e82611ea7565b604082019050919050565b6000611826602283611b8b565b915061183182611ef6565b604082019050919050565b6000611849602683611b8b565b915061185482611f45565b604082019050919050565b600061186c602883611b8b565b915061187782611f94565b604082019050919050565b600061188f602083611b8b565b915061189a82611fe3565b602082019050919050565b60006118b2602183611b8b565b91506118bd8261200c565b604082019050919050565b60006118d5602583611b8b565b91506118e08261205b565b604082019050919050565b60006118f8602483611b8b565b9150611903826120aa565b604082019050919050565b600061191b602583611b8b565b9150611926826120f9565b604082019050919050565b600061193e601f83611b8b565b915061194982612148565b602082019050919050565b61195d81611cef565b82525050565b61196c81611cf9565b82525050565b60006020820190506119876000830184611759565b92915050565b60006020820190506119a26000830184611768565b92915050565b600060208201905081810360008301526119c28184611777565b905092915050565b600060208201905081810360008301526119e3816117b0565b9050919050565b60006020820190508181036000830152611a03816117d3565b9050919050565b60006020820190508181036000830152611a23816117f6565b9050919050565b60006020820190508181036000830152611a4381611819565b9050919050565b60006020820190508181036000830152611a638161183c565b9050919050565b60006020820190508181036000830152611a838161185f565b9050919050565b60006020820190508181036000830152611aa381611882565b9050919050565b60006020820190508181036000830152611ac3816118a5565b9050919050565b60006020820190508181036000830152611ae3816118c8565b9050919050565b60006020820190508181036000830152611b03816118eb565b9050919050565b60006020820190508181036000830152611b238161190e565b9050919050565b60006020820190508181036000830152611b4381611931565b9050919050565b6000602082019050611b5f6000830184611954565b92915050565b6000602082019050611b7a6000830184611963565b92915050565b600081519050919050565b600082825260208201905092915050565b6000611ba782611cef565b9150611bb283611cef565b9250827fffffffffffffffffffffffffffffffffffffffffffffffffffffffffffffffff03821115611be757611be6611d6b565b5b828201905092915050565b6000611bfd82611cef565b9150611c0883611cef565b925082611c1857611c17611d9a565b5b828204905092915050565b6000611c2e82611cef565b9150611c3983611cef565b9250817fffffffffffffffffffffffffffffffffffffffffffffffffffffffffffffffff0483118215151615611c7257611c71611d6b565b5b828202905092915050565b6000611c8882611cef565b9150611c9383611cef565b925082821015611ca657611ca5611d6b565b5b828203905092915050565b6000611cbc82611ccf565b9050919050565b60008115159050919050565b600073ffffffffffffffffffffffffffffffffffffffff82169050919050565b6000819050919050565b600060ff82169050919050565b60005b83811015611d24578082015181840152602081019050611d09565b83811115611d33576000848401525b50505050565b60006002820490506001821680611d5157607f821691505b60208210811415611d6557611d64611dc9565b5b50919050565b7f4e487b7100000000000000000000000000000000000000000000000000000000600052601160045260246000fd5b7f4e487b7100000000000000000000000000000000000000000000000000000000600052601260045260246000fd5b7f4e487b7100000000000000000000000000000000000000000000000000000000600052602260045260246000fd5b6000601f19601f8301169050919050565b7f45524332303a207472616e7366657220746f20746865207a65726f206164647260008201527f6573730000000000000000000000000000000000000000000000000000000000602082015250565b7f45524332303a206275726e20616d6f756e7420657863656564732062616c616e60008201527f6365000000000000000000000000000000000000000000000000000000000000602082015250565b7f4f776e61626c653a206e6577206f776e657220697320746865207a65726f206160008201527f6464726573730000000000000000000000000000000000000000000000000000602082015250565b7f45524332303a20617070726f766520746f20746865207a65726f20616464726560008201527f7373000000000000000000000000000000000000000000000000000000000000602082015250565b7f45524332303a207472616e7366657220616d6f756e742065786365656473206260008201527f616c616e63650000000000000000000000000000000000000000000000000000602082015250565b7f45524332303a207472616e7366657220616d6f756e742065786365656473206160008201527f6c6c6f77616e6365000000000000000000000000000000000000000000000000602082015250565b7f4f776e61626c653a2063616c6c6572206973206e6f7420746865206f776e6572600082015250565b7f45524332303a206275726e2066726f6d20746865207a65726f2061646472657360008201527f7300000000000000000000000000000000000000000000000000000000000000602082015250565b7f45524332303a207472616e736665722066726f6d20746865207a65726f20616460008201527f6472657373000000000000000000000000000000000000000000000000000000602082015250565b7f45524332303a20617070726f76652066726f6d20746865207a65726f2061646460008201527f7265737300000000000000000000000000000000000000000000000000000000602082015250565b7f45524332303a2064656372656173656420616c6c6f77616e63652062656c6f7760008201527f207a65726f000000000000000000000000000000000000000000000000000000602082015250565b7f45524332303a206d696e7420746f20746865207a65726f206164647265737300600082015250565b61217a81611cb1565b811461218557600080fd5b50565b61219181611cef565b811461219c57600080fd5b5056fea26469706673582212203f66c54482d59cd23b8bd02f961f30d2ddafedcc69381400befdbc36857f4a1064736f6c63430008030033",
  "immutableReferences": {},
  "source": "// SPDX-License-Identifier: SEE LICENSE IN LICENSE\npragma solidity >=0.4.22 <0.9.0;\n\nimport \"@openzeppelin/contracts/token/ERC20/ERC20.sol\";\nimport \"@openzeppelin/contracts/access/Ownable.sol\";\nimport \"@openzeppelin/contracts/utils/math/SafeMath.sol\";\n\n/**\n * @notice implementation of the Niko token contract\n * @author Thal Marcelin\n */\ncontract Niko is ERC20, Ownable {\n    using SafeMath for uint256;\n\n    string internal constant NAME = \"Niko\";\n    string internal constant SYMBOL = \"NKO\";\n\n    address stakingRewards;\n    uint256 burnRate = 5; // 0-100 %\n\n    /**\n     * @dev initializes a new Niko instance\n     *\n     * @param _initialSupply     initial supply of NKO\n     */\n    constructor(uint256 _initialSupply) ERC20(NAME, SYMBOL){\n        _mint(msg.sender, _initialSupply);\n    }\n\n    /**\n     * @dev mint new NKO token, only contract owner can mint\n     *\n     * @param _to          address for the new minted token\n     * @param _amount      mount of NKO to mint\n     */\n    function mintToken(address _to, uint256 _amount) public onlyOwner {\n        _mint(_to, _amount);\n    }\n\n    /**\n     * @dev change staking rewards address\n     *\n     * @param _newAddress    new staking rewards address\n     */\n    function setStakingRewardsAddress(address _newAddress) public onlyOwner {\n        stakingRewards = _newAddress;\n    }\n\n    /**\n     * @dev Moves tokens `amount` from `sender` to `recipient`, burn and take rewards\n     *\n     * @param _sender      sender of the token\n     * @param _recipient   recipient of the token\n     * @param _amount      token amount to send\n     */\n    function _transfer(address _sender, address _recipient, uint256 _amount) internal override {\n        require(balanceOf(_sender) >= _amount);\n\n        uint256 burnAmount = _deductionAmount(_amount, _recipient);\n        uint256 amountMinusBurn = _amount.sub(burnAmount);\n\n        if(burnAmount > 0){\n            _handleTokenBurn(_sender, burnAmount);\n        }\n\n        super._transfer(_sender, _recipient, amountMinusBurn);\n    }\n\n    /**\n     * @dev burn and mint new token as staking rewards\n     *\n     * @param _sender      send token\n     * @param _amount      token amount to send\n     */\n    function _handleTokenBurn(address _sender, uint256 _amount) internal {\n        _burn(_sender, _amount);\n        _mint(stakingRewards, _amount.div(2));\n    }\n\n    /**\n     * @dev determine the amount to burn and send to rewards contract\n     *\n     * @param _amount   total amount to calcuate with\n     */\n    function _deductionAmount(uint256 _amount, address _recipient) internal view returns (uint256) {\n        uint256 deduction = 0;\n        uint256 minSupply = 50000 * 10 ** (18);\n\n        if(totalSupply() > minSupply && msg.sender != address(0) && msg.sender != stakingRewards && _recipient != stakingRewards){\n            deduction = _amount.mul(burnRate).div(100);\n        }\n\n        return deduction;\n    }\n\n}\n",
  "sourcePath": "/Users/thal/Github/Niko/contracts/token/Niko.sol",
  "compiler": {
    "name": "solc",
    "version": "0.8.3+commit.8d00100c.Emscripten.clang"
  },
  "schemaVersion": "3.3.4",
  "updatedAt": "2021-04-19T15:28:14.051Z",
  "networkType": "ethereum",
  "devdoc": {
    "author": "Thal Marcelin",
    "kind": "dev",
    "methods": {
      "allowance(address,address)": {
        "details": "See {IERC20-allowance}."
      },
      "approve(address,uint256)": {
        "details": "See {IERC20-approve}. Requirements: - `spender` cannot be the zero address."
      },
      "balanceOf(address)": {
        "details": "See {IERC20-balanceOf}."
      },
      "constructor": {
        "details": "initializes a new Niko instance",
        "params": {
          "_initialSupply": "initial supply of NKO"
        }
      },
      "decimals()": {
        "details": "Returns the number of decimals used to get its user representation. For example, if `decimals` equals `2`, a balance of `505` tokens should be displayed to a user as `5,05` (`505 / 10 ** 2`). Tokens usually opt for a value of 18, imitating the relationship between Ether and Wei. This is the value {ERC20} uses, unless this function is overloaded; NOTE: This information is only used for _display_ purposes: it in no way affects any of the arithmetic of the contract, including {IERC20-balanceOf} and {IERC20-transfer}."
      },
      "decreaseAllowance(address,uint256)": {
        "details": "Atomically decreases the allowance granted to `spender` by the caller. This is an alternative to {approve} that can be used as a mitigation for problems described in {IERC20-approve}. Emits an {Approval} event indicating the updated allowance. Requirements: - `spender` cannot be the zero address. - `spender` must have allowance for the caller of at least `subtractedValue`."
      },
      "increaseAllowance(address,uint256)": {
        "details": "Atomically increases the allowance granted to `spender` by the caller. This is an alternative to {approve} that can be used as a mitigation for problems described in {IERC20-approve}. Emits an {Approval} event indicating the updated allowance. Requirements: - `spender` cannot be the zero address."
      },
      "mintToken(address,uint256)": {
        "details": "mint new NKO token, only contract owner can mint",
        "params": {
          "_amount": "mount of NKO to mint",
          "_to": "address for the new minted token"
        }
      },
      "name()": {
        "details": "Returns the name of the token."
      },
      "owner()": {
        "details": "Returns the address of the current owner."
      },
      "renounceOwnership()": {
        "details": "Leaves the contract without owner. It will not be possible to call `onlyOwner` functions anymore. Can only be called by the current owner. NOTE: Renouncing ownership will leave the contract without an owner, thereby removing any functionality that is only available to the owner."
      },
      "setStakingRewardsAddress(address)": {
        "details": "change staking rewards address",
        "params": {
          "_newAddress": "new staking rewards address"
        }
      },
      "symbol()": {
        "details": "Returns the symbol of the token, usually a shorter version of the name."
      },
      "totalSupply()": {
        "details": "See {IERC20-totalSupply}."
      },
      "transfer(address,uint256)": {
        "details": "See {IERC20-transfer}. Requirements: - `recipient` cannot be the zero address. - the caller must have a balance of at least `amount`."
      },
      "transferFrom(address,address,uint256)": {
        "details": "See {IERC20-transferFrom}. Emits an {Approval} event indicating the updated allowance. This is not required by the EIP. See the note at the beginning of {ERC20}. Requirements: - `sender` and `recipient` cannot be the zero address. - `sender` must have a balance of at least `amount`. - the caller must have allowance for ``sender``'s tokens of at least `amount`."
      },
      "transferOwnership(address)": {
        "details": "Transfers ownership of the contract to a new account (`newOwner`). Can only be called by the current owner."
      }
    },
    "version": 1
  },
  "userdoc": {
    "kind": "user",
    "methods": {},
    "notice": "implementation of the Niko token contract",
    "version": 1
  }
}