{
  "contractName": "StakingRewards",
  "abi": [
    {
      "inputs": [
        {
          "internalType": "address",
          "name": "_tokenAddress",
          "type": "address"
        }
      ],
      "stateMutability": "nonpayable",
      "type": "constructor"
    },
    {
      "anonymous": false,
      "inputs": [
        {
          "indexed": true,
          "internalType": "address",
          "name": "previousOwner",
          "type": "address"
        },
        {
          "indexed": true,
          "internalType": "address",
          "name": "newOwner",
          "type": "address"
        }
      ],
      "name": "OwnershipTransferred",
      "type": "event"
    },
    {
      "inputs": [],
      "name": "owner",
      "outputs": [
        {
          "internalType": "address",
          "name": "",
          "type": "address"
        }
      ],
      "stateMutability": "view",
      "type": "function",
      "constant": true
    },
    {
      "inputs": [],
      "name": "renounceOwnership",
      "outputs": [],
      "stateMutability": "nonpayable",
      "type": "function"
    },
    {
      "inputs": [
        {
          "internalType": "address",
          "name": "newOwner",
          "type": "address"
        }
      ],
      "name": "transferOwnership",
      "outputs": [],
      "stateMutability": "nonpayable",
      "type": "function"
    },
    {
      "inputs": [
        {
          "internalType": "address",
          "name": "stakeHolder",
          "type": "address"
        }
      ],
      "name": "getStakes",
      "outputs": [
        {
          "internalType": "uint256",
          "name": "",
          "type": "uint256"
        }
      ],
      "stateMutability": "view",
      "type": "function",
      "constant": true
    },
    {
      "inputs": [],
      "name": "getTotalStakes",
      "outputs": [
        {
          "internalType": "uint256",
          "name": "",
          "type": "uint256"
        }
      ],
      "stateMutability": "view",
      "type": "function",
      "constant": true
    },
    {
      "inputs": [
        {
          "internalType": "uint256",
          "name": "_stake",
          "type": "uint256"
        }
      ],
      "name": "createStake",
      "outputs": [],
      "stateMutability": "nonpayable",
      "type": "function"
    },
    {
      "inputs": [
        {
          "internalType": "uint256",
          "name": "_stake",
          "type": "uint256"
        }
      ],
      "name": "removeStake",
      "outputs": [],
      "stateMutability": "nonpayable",
      "type": "function"
    },
    {
      "inputs": [
        {
          "internalType": "address",
          "name": "_address",
          "type": "address"
        }
      ],
      "name": "isStakeHolder",
      "outputs": [
        {
          "internalType": "bool",
          "name": "",
          "type": "bool"
        },
        {
          "internalType": "uint256",
          "name": "",
          "type": "uint256"
        }
      ],
      "stateMutability": "view",
      "type": "function",
      "constant": true
    },
    {
      "inputs": [
        {
          "internalType": "address",
          "name": "_stakeHolder",
          "type": "address"
        }
      ],
      "name": "getRewards",
      "outputs": [
        {
          "internalType": "uint256",
          "name": "",
          "type": "uint256"
        }
      ],
      "stateMutability": "view",
      "type": "function",
      "constant": true
    },
    {
      "inputs": [],
      "name": "getTotalOwedRewards",
      "outputs": [
        {
          "internalType": "uint256",
          "name": "",
          "type": "uint256"
        }
      ],
      "stateMutability": "view",
      "type": "function",
      "constant": true
    },
    {
      "inputs": [],
      "name": "distributeRewards",
      "outputs": [],
      "stateMutability": "nonpayable",
      "type": "function"
    },
    {
      "inputs": [],
      "name": "claimRewards",
      "outputs": [],
      "stateMutability": "nonpayable",
      "type": "function"
    }
  ],
  "bytecode": "0x60806040523480156200001157600080fd5b5060405162001af038038062001af083398181016040528101906200003791906200014e565b6000620000496200012f60201b60201c565b9050806000806101000a81548173ffffffffffffffffffffffffffffffffffffffff021916908373ffffffffffffffffffffffffffffffffffffffff1602179055508073ffffffffffffffffffffffffffffffffffffffff16600073ffffffffffffffffffffffffffffffffffffffff167f8be0079c531659141344cd1fd0a4f28419497f9722a3daafe3b4186f6b6457e060405160405180910390a35080600160006101000a81548173ffffffffffffffffffffffffffffffffffffffff021916908373ffffffffffffffffffffffffffffffffffffffff16021790555050620001c8565b600033905090565b6000815190506200014881620001ae565b92915050565b6000602082840312156200016157600080fd5b6000620001718482850162000137565b91505092915050565b600062000187826200018e565b9050919050565b600073ffffffffffffffffffffffffffffffffffffffff82169050919050565b620001b9816200017a565b8114620001c557600080fd5b50565b61191880620001d86000396000f3fe608060405234801561001057600080fd5b50600436106100b45760003560e01c8063715018a611610071578063715018a61461015657806379ee54f7146101605780637ba6f458146101905780638da5cb5b146101c0578063939624ab146101de578063f2fde38b146101fa576100b4565b80631bf6ddae146100b9578063372500ab146100d55780634b025f31146100df57806363512159146100fd57806368c336271461012e5780636f4a2cd01461014c575b600080fd5b6100d360048036038101906100ce919061144c565b610216565b005b6100dd6103ba565b005b6100e76104f6565b6040516100f491906115f5565b60405180910390f35b610117600480360381019061011291906113fa565b6105e0565b60405161012592919061158c565b60405180910390f35b6101366106b9565b60405161014391906115f5565b60405180910390f35b6101546107a3565b005b61015e610a14565b005b61017a600480360381019061017591906113fa565b610b4e565b60405161018791906115f5565b60405180910390f35b6101aa60048036038101906101a591906113fa565b610b97565b6040516101b791906115f5565b60405180910390f35b6101c8610be0565b6040516101d59190611511565b60405180910390f35b6101f860048036038101906101f3919061144c565b610c09565b005b610214600480360381019061020f91906113fa565b610def565b005b600160009054906101000a900473ffffffffffffffffffffffffffffffffffffffff1673ffffffffffffffffffffffffffffffffffffffff166323b872dd3330846040518463ffffffff1660e01b81526004016102759392919061152c565b602060405180830381600087803b15801561028f57600080fd5b505af11580156102a3573d6000803e3d6000fd5b505050506040513d601f19601f820116820180604052508101906102c79190611423565b6102d057600080fd5b6000600360003373ffffffffffffffffffffffffffffffffffffffff1673ffffffffffffffffffffffffffffffffffffffff1681526020019081526020016000205414156103225761032133610f98565b5b61037481600360003373ffffffffffffffffffffffffffffffffffffffff1673ffffffffffffffffffffffffffffffffffffffff1681526020019081526020016000205461101390919063ffffffff16565b600360003373ffffffffffffffffffffffffffffffffffffffff1673ffffffffffffffffffffffffffffffffffffffff1681526020019081526020016000208190555050565b6000600460003373ffffffffffffffffffffffffffffffffffffffff1673ffffffffffffffffffffffffffffffffffffffff168152602001908152602001600020549050600160009054906101000a900473ffffffffffffffffffffffffffffffffffffffff1673ffffffffffffffffffffffffffffffffffffffff1663a9059cbb33836040518363ffffffff1660e01b815260040161045b929190611563565b602060405180830381600087803b15801561047557600080fd5b505af1158015610489573d6000803e3d6000fd5b505050506040513d601f19601f820116820180604052508101906104ad9190611423565b506000600460003373ffffffffffffffffffffffffffffffffffffffff1673ffffffffffffffffffffffffffffffffffffffff1681526020019081526020016000208190555050565b6000806000905060005b6002805490508110156105d8576105c3600460006002848154811061054e577f4e487b7100000000000000000000000000000000000000000000000000000000600052603260045260246000fd5b9060005260206000200160009054906101000a900473ffffffffffffffffffffffffffffffffffffffff1673ffffffffffffffffffffffffffffffffffffffff1673ffffffffffffffffffffffffffffffffffffffff168152602001908152602001600020548361101390919063ffffffff16565b915080806105d09061177e565b915050610500565b508091505090565b60008060005b6002805490508110156106ab576002818154811061062d577f4e487b7100000000000000000000000000000000000000000000000000000000600052603260045260246000fd5b9060005260206000200160009054906101000a900473ffffffffffffffffffffffffffffffffffffffff1673ffffffffffffffffffffffffffffffffffffffff168473ffffffffffffffffffffffffffffffffffffffff1614156106985760018192509250506106b4565b80806106a39061177e565b9150506105e6565b50600080915091505b915091565b6000806000905060005b60028054905081101561079b576107866003600060028481548110610711577f4e487b7100000000000000000000000000000000000000000000000000000000600052603260045260246000fd5b9060005260206000200160009054906101000a900473ffffffffffffffffffffffffffffffffffffffff1673ffffffffffffffffffffffffffffffffffffffff1673ffffffffffffffffffffffffffffffffffffffff168152602001908152602001600020548361101390919063ffffffff16565b915080806107939061177e565b9150506106c3565b508091505090565b6107ab611029565b73ffffffffffffffffffffffffffffffffffffffff166107c9610be0565b73ffffffffffffffffffffffffffffffffffffffff161461081f576040517f08c379a0000000000000000000000000000000000000000000000000000000008152600401610816906115d5565b60405180910390fd5b60005b600280549050811015610a1157600061089e6002838154811061086e577f4e487b7100000000000000000000000000000000000000000000000000000000600052603260045260246000fd5b9060005260206000200160009054906101000a900473ffffffffffffffffffffffffffffffffffffffff16611031565b90506109568160046000600286815481106108e2577f4e487b7100000000000000000000000000000000000000000000000000000000600052603260045260246000fd5b9060005260206000200160009054906101000a900473ffffffffffffffffffffffffffffffffffffffff1673ffffffffffffffffffffffffffffffffffffffff1673ffffffffffffffffffffffffffffffffffffffff1681526020019081526020016000205461101390919063ffffffff16565b6004600060028581548110610994577f4e487b7100000000000000000000000000000000000000000000000000000000600052603260045260246000fd5b9060005260206000200160009054906101000a900473ffffffffffffffffffffffffffffffffffffffff1673ffffffffffffffffffffffffffffffffffffffff1673ffffffffffffffffffffffffffffffffffffffff16815260200190815260200160002081905550508080610a099061177e565b915050610822565b50565b610a1c611029565b73ffffffffffffffffffffffffffffffffffffffff16610a3a610be0565b73ffffffffffffffffffffffffffffffffffffffff1614610a90576040517f08c379a0000000000000000000000000000000000000000000000000000000008152600401610a87906115d5565b60405180910390fd5b600073ffffffffffffffffffffffffffffffffffffffff1660008054906101000a900473ffffffffffffffffffffffffffffffffffffffff1673ffffffffffffffffffffffffffffffffffffffff167f8be0079c531659141344cd1fd0a4f28419497f9722a3daafe3b4186f6b6457e060405160405180910390a360008060006101000a81548173ffffffffffffffffffffffffffffffffffffffff021916908373ffffffffffffffffffffffffffffffffffffffff160217905550565b6000600460008373ffffffffffffffffffffffffffffffffffffffff1673ffffffffffffffffffffffffffffffffffffffff168152602001908152602001600020549050919050565b6000600360008373ffffffffffffffffffffffffffffffffffffffff1673ffffffffffffffffffffffffffffffffffffffff168152602001908152602001600020549050919050565b60008060009054906101000a900473ffffffffffffffffffffffffffffffffffffffff16905090565b6000600360003373ffffffffffffffffffffffffffffffffffffffff1673ffffffffffffffffffffffffffffffffffffffff1681526020019081526020016000205411610c5557600080fd5b610ca781600360003373ffffffffffffffffffffffffffffffffffffffff1673ffffffffffffffffffffffffffffffffffffffff168152602001908152602001600020546111e390919063ffffffff16565b600360003373ffffffffffffffffffffffffffffffffffffffff1673ffffffffffffffffffffffffffffffffffffffff168152602001908152602001600020819055506000600360003373ffffffffffffffffffffffffffffffffffffffff1673ffffffffffffffffffffffffffffffffffffffff168152602001908152602001600020541415610d3c57610d3b336111f9565b5b600160009054906101000a900473ffffffffffffffffffffffffffffffffffffffff1673ffffffffffffffffffffffffffffffffffffffff1663a9059cbb33836040518363ffffffff1660e01b8152600401610d99929190611563565b602060405180830381600087803b158015610db357600080fd5b505af1158015610dc7573d6000803e3d6000fd5b505050506040513d601f19601f82011682018060405250810190610deb9190611423565b5050565b610df7611029565b73ffffffffffffffffffffffffffffffffffffffff16610e15610be0565b73ffffffffffffffffffffffffffffffffffffffff1614610e6b576040517f08c379a0000000000000000000000000000000000000000000000000000000008152600401610e62906115d5565b60405180910390fd5b600073ffffffffffffffffffffffffffffffffffffffff168173ffffffffffffffffffffffffffffffffffffffff161415610edb576040517f08c379a0000000000000000000000000000000000000000000000000000000008152600401610ed2906115b5565b60405180910390fd5b8073ffffffffffffffffffffffffffffffffffffffff1660008054906101000a900473ffffffffffffffffffffffffffffffffffffffff1673ffffffffffffffffffffffffffffffffffffffff167f8be0079c531659141344cd1fd0a4f28419497f9722a3daafe3b4186f6b6457e060405160405180910390a3806000806101000a81548173ffffffffffffffffffffffffffffffffffffffff021916908373ffffffffffffffffffffffffffffffffffffffff16021790555050565b6000610fa3826105e0565b5090508061100f576002829080600181540180825580915050600190039060005260206000200160009091909190916101000a81548173ffffffffffffffffffffffffffffffffffffffff021916908373ffffffffffffffffffffffffffffffffffffffff1602179055505b5050565b600081836110219190611621565b905092915050565b600033905090565b60008061103c6106b9565b905060006110fd82600160009054906101000a900473ffffffffffffffffffffffffffffffffffffffff1673ffffffffffffffffffffffffffffffffffffffff166370a08231306040518263ffffffff1660e01b815260040161109f9190611511565b60206040518083038186803b1580156110b757600080fd5b505afa1580156110cb573d6000803e3d6000fd5b505050506040513d601f19601f820116820180604052508101906110ef9190611475565b6111e390919063ffffffff16565b90506000611141606461113360056111256111166104f6565b876111e390919063ffffffff16565b61137a90919063ffffffff16565b61139090919063ffffffff16565b90506000600360008773ffffffffffffffffffffffffffffffffffffffff1673ffffffffffffffffffffffffffffffffffffffff16815260200190815260200160002054905060006111af856111a160648561137a90919063ffffffff16565b61139090919063ffffffff16565b90506111d760646111c9838661137a90919063ffffffff16565b61139090919063ffffffff16565b95505050505050919050565b600081836111f19190611702565b905092915050565b600080611205836105e0565b91509150811561137557600260016002805490506112239190611702565b8154811061125a577f4e487b7100000000000000000000000000000000000000000000000000000000600052603260045260246000fd5b9060005260206000200160009054906101000a900473ffffffffffffffffffffffffffffffffffffffff16600282815481106112bf577f4e487b7100000000000000000000000000000000000000000000000000000000600052603260045260246000fd5b9060005260206000200160006101000a81548173ffffffffffffffffffffffffffffffffffffffff021916908373ffffffffffffffffffffffffffffffffffffffff160217905550600280548061133f577f4e487b7100000000000000000000000000000000000000000000000000000000600052603160045260246000fd5b6001900381819060005260206000200160006101000a81549073ffffffffffffffffffffffffffffffffffffffff021916905590555b505050565b6000818361138891906116a8565b905092915050565b6000818361139e9190611677565b905092915050565b6000813590506113b58161189d565b92915050565b6000815190506113ca816118b4565b92915050565b6000813590506113df816118cb565b92915050565b6000815190506113f4816118cb565b92915050565b60006020828403121561140c57600080fd5b600061141a848285016113a6565b91505092915050565b60006020828403121561143557600080fd5b6000611443848285016113bb565b91505092915050565b60006020828403121561145e57600080fd5b600061146c848285016113d0565b91505092915050565b60006020828403121561148757600080fd5b6000611495848285016113e5565b91505092915050565b6114a781611736565b82525050565b6114b681611748565b82525050565b60006114c9602683611610565b91506114d482611825565b604082019050919050565b60006114ec602083611610565b91506114f782611874565b602082019050919050565b61150b81611774565b82525050565b6000602082019050611526600083018461149e565b92915050565b6000606082019050611541600083018661149e565b61154e602083018561149e565b61155b6040830184611502565b949350505050565b6000604082019050611578600083018561149e565b6115856020830184611502565b9392505050565b60006040820190506115a160008301856114ad565b6115ae6020830184611502565b9392505050565b600060208201905081810360008301526115ce816114bc565b9050919050565b600060208201905081810360008301526115ee816114df565b9050919050565b600060208201905061160a6000830184611502565b92915050565b600082825260208201905092915050565b600061162c82611774565b915061163783611774565b9250827fffffffffffffffffffffffffffffffffffffffffffffffffffffffffffffffff0382111561166c5761166b6117c7565b5b828201905092915050565b600061168282611774565b915061168d83611774565b92508261169d5761169c6117f6565b5b828204905092915050565b60006116b382611774565b91506116be83611774565b9250817fffffffffffffffffffffffffffffffffffffffffffffffffffffffffffffffff04831182151516156116f7576116f66117c7565b5b828202905092915050565b600061170d82611774565b915061171883611774565b92508282101561172b5761172a6117c7565b5b828203905092915050565b600061174182611754565b9050919050565b60008115159050919050565b600073ffffffffffffffffffffffffffffffffffffffff82169050919050565b6000819050919050565b600061178982611774565b91507fffffffffffffffffffffffffffffffffffffffffffffffffffffffffffffffff8214156117bc576117bb6117c7565b5b600182019050919050565b7f4e487b7100000000000000000000000000000000000000000000000000000000600052601160045260246000fd5b7f4e487b7100000000000000000000000000000000000000000000000000000000600052601260045260246000fd5b7f4f776e61626c653a206e6577206f776e657220697320746865207a65726f206160008201527f6464726573730000000000000000000000000000000000000000000000000000602082015250565b7f4f776e61626c653a2063616c6c6572206973206e6f7420746865206f776e6572600082015250565b6118a681611736565b81146118b157600080fd5b50565b6118bd81611748565b81146118c857600080fd5b50565b6118d481611774565b81146118df57600080fd5b5056fea2646970667358221220899933d4b645373becc4087469274fbecc8f525971fa52bc721bb5f76f73ca6a64736f6c63430008030033",
  "immutableReferences": {},
  "source": "// SPDX-License-Identifier: SEE LICENSE IN LICENSE\npragma solidity >=0.4.22 <0.9.0;\n\nimport \"@openzeppelin/contracts/token/ERC20/ERC20.sol\";\nimport \"@openzeppelin/contracts/access/Ownable.sol\";\nimport \"@openzeppelin/contracts/utils/math/SafeMath.sol\";\n\n/**\n * @notice basic implementation of the Staking Mechanism for Niko Token\n * @author Thal Marcelin\n */\ncontract StakingRewards is Ownable {\n    using SafeMath for uint256;\n\n    IERC20 token;\n    address[] internal stakeHolders;\n    mapping(address => uint256) internal stakes;\n    mapping(address => uint256) internal rewards;\n\n    /**\n     * @dev initializes a new Staking Rewards instance\n     *\n     * @param _tokenAddress     initial supply of NKO\n     */\n    constructor(address _tokenAddress){\n        token = ERC20(_tokenAddress);\n    }\n\n    /**\n    * @dev retrieve the stake for a stakeholder.\n    *\n    * @param stakeHolder The stakeholder to retrieve the stake for.\n    * @return uint256 the amount of Niko staked.\n    */\n    function getStakes(address stakeHolder) public view returns(uint256) {\n        return stakes[stakeHolder];\n    }\n\n    /**\n    * @notice a method to get the total user stked token\n    * @return uint256 the aggregated stakes from all stakeholders.\n    */\n    function getTotalStakes() public view returns(uint256) {\n        uint256 totalStakes = 0;\n        for(uint256 i; i < stakeHolders.length; i++){\n            totalStakes = totalStakes.add(stakes[stakeHolders[i]]);\n        }\n        return totalStakes;\n    }\n\n    /**\n    * @dev a method for a stakeholder to create a stake.\n    * @param _stake The size of the stake to be created.\n    */\n    function createStake(uint256 _stake) public {\n        require(token.transferFrom(msg.sender, address(this), _stake));\n\n        if(stakes[msg.sender] == 0) _addStakeHolder(msg.sender);\n        stakes[msg.sender] = stakes[msg.sender].add(_stake);\n    }\n\n    /**\n    * @notice  method for a stakeholder to remove a stake.\n    * @param _stake The size of the stake to be removed.\n    */\n    function removeStake(uint256 _stake) public {\n        require(stakes[msg.sender] > 0);\n\n        stakes[msg.sender] = stakes[msg.sender].sub(_stake);\n        if(stakes[msg.sender] == 0) _removeStakeHolder(msg.sender);\n        token.transfer(msg.sender, _stake);\n    }\n\n    /**\n    * @notice function to check if an address is already a stakeholder\n    *\n    * @param _address    the address to verify.\n    * @return bool, uint256 whether the address is a stakeholder,\n    * and if yes its position in the stakeholders array.\n    */\n    function isStakeHolder(address _address) public view returns(bool, uint256) {\n        for(uint256 i = 0; i < stakeHolders.length; i++){\n            if(_address == stakeHolders[i]) return (true, i);\n        }\n        return (false, 0);\n    }\n\n    /**\n    * @notice  to add a stakeholder.\n    * @param _stakeHolder The stakeholder to add.\n    */\n    function _addStakeHolder(address _stakeHolder) internal {\n        (bool isStaking,) = isStakeHolder(_stakeHolder);\n        if(!isStaking) stakeHolders.push(_stakeHolder);\n    }\n\n    /**\n    * @notice to remove a stakeholder.\n    * @param _stakeHolder the stakeholder to remove.\n    */\n    function _removeStakeHolder(address _stakeHolder) internal {\n        (bool isStaking, uint256 i) = isStakeHolder(_stakeHolder);\n        if(isStaking){\n            stakeHolders[i] = stakeHolders[stakeHolders.length - 1];\n            stakeHolders.pop();\n        }\n    }\n\n    /**\n    * @notice A method to allow a staker to check his rewards.\n    * @param _stakeHolder The stakeholder to check rewards for.\n    */\n    function getRewards(address _stakeHolder) public view returns(uint256) {\n        return rewards[_stakeHolder];\n    }\n\n    /**\n    * @notice A method to the sum the rewards from all stakeholders.\n    * @return uint256 The aggregated rewards from all stakeholders.\n    */\n    function getTotalOwedRewards() public view returns(uint256) {\n        uint256 _totalRewards = 0;\n        for(uint256 i = 0; i < stakeHolders.length; i++){\n            _totalRewards = _totalRewards.add(rewards[stakeHolders[i]]);\n        }\n\n        return _totalRewards;\n    }\n\n    /**\n   * @notice A  method that calculates the rewards for each stakeholder.\n   * @param _stakeHolder The stakeholder to calculate rewards for.\n   */\n    function calculateRewards(address _stakeHolder) internal view returns(uint256) {\n        uint256 totalStakes = getTotalStakes();\n        uint256 totalRewards = token.balanceOf(address(this)).sub(totalStakes);\n        uint256 totalAvailableRewards = totalRewards.sub(getTotalOwedRewards()).mul(5).div(100); // Distribute 5% of total rewards per calls...\n\n        uint256 stakedAmount = stakes[_stakeHolder];\n        uint256 holderStakedPercentage = stakedAmount.mul(100).div(totalStakes);\n\n        return totalAvailableRewards.mul(holderStakedPercentage).div(100);\n    }\n\n\n    /**\n   * @notice to distribute rewards to all stakeholders.\n   */\n    function distributeRewards() public onlyOwner {\n        for(uint256 i; i < stakeHolders.length; i++){\n            uint256 reward = calculateRewards(stakeHolders[i]);\n            rewards[stakeHolders[i]] = rewards[stakeHolders[i]].add(reward);\n        }\n    }\n\n    /**\n    * @notice to allow a stakeholders to withdraw their rewards.\n    */\n    function claimRewards() public {\n        uint256 reward = rewards[msg.sender];\n        token.transfer(msg.sender, reward);\n        rewards[msg.sender] = 0;\n    }\n\n}\n",
  "sourcePath": "/Users/thal/Github/Niko/contracts/staking/StakingRewards.sol",
  "compiler": {
    "name": "solc",
    "version": "0.8.3+commit.8d00100c.Emscripten.clang"
  },
  "schemaVersion": "3.3.4",
  "updatedAt": "2021-04-19T15:28:14.060Z",
  "networkType": "ethereum",
  "devdoc": {
    "author": "Thal Marcelin",
    "kind": "dev",
    "methods": {
      "constructor": {
        "details": "initializes a new Staking Rewards instance",
        "params": {
          "_tokenAddress": "initial supply of NKO"
        }
      },
      "createStake(uint256)": {
        "details": "a method for a stakeholder to create a stake.",
        "params": {
          "_stake": "The size of the stake to be created."
        }
      },
      "getRewards(address)": {
        "params": {
          "_stakeHolder": "The stakeholder to check rewards for."
        }
      },
      "getStakes(address)": {
        "details": "retrieve the stake for a stakeholder.",
        "params": {
          "stakeHolder": "The stakeholder to retrieve the stake for."
        },
        "returns": {
          "_0": "uint256 the amount of Niko staked."
        }
      },
      "getTotalOwedRewards()": {
        "returns": {
          "_0": "uint256 The aggregated rewards from all stakeholders."
        }
      },
      "getTotalStakes()": {
        "returns": {
          "_0": "uint256 the aggregated stakes from all stakeholders."
        }
      },
      "isStakeHolder(address)": {
        "params": {
          "_address": "the address to verify."
        },
        "returns": {
          "_0": "bool, uint256 whether the address is a stakeholder, and if yes its position in the stakeholders array."
        }
      },
      "owner()": {
        "details": "Returns the address of the current owner."
      },
      "removeStake(uint256)": {
        "params": {
          "_stake": "The size of the stake to be removed."
        }
      },
      "renounceOwnership()": {
        "details": "Leaves the contract without owner. It will not be possible to call `onlyOwner` functions anymore. Can only be called by the current owner. NOTE: Renouncing ownership will leave the contract without an owner, thereby removing any functionality that is only available to the owner."
      },
      "transferOwnership(address)": {
        "details": "Transfers ownership of the contract to a new account (`newOwner`). Can only be called by the current owner."
      }
    },
    "version": 1
  },
  "userdoc": {
    "kind": "user",
    "methods": {
      "claimRewards()": {
        "notice": "to allow a stakeholders to withdraw their rewards."
      },
      "distributeRewards()": {
        "notice": "to distribute rewards to all stakeholders."
      },
      "getRewards(address)": {
        "notice": "A method to allow a staker to check his rewards."
      },
      "getTotalOwedRewards()": {
        "notice": "A method to the sum the rewards from all stakeholders."
      },
      "getTotalStakes()": {
        "notice": "a method to get the total user stked token"
      },
      "isStakeHolder(address)": {
        "notice": "function to check if an address is already a stakeholder"
      },
      "removeStake(uint256)": {
        "notice": "method for a stakeholder to remove a stake."
      }
    },
    "notice": "basic implementation of the Staking Mechanism for Niko Token",
    "version": 1
  }
}